S00E00005461736B5F322E73726563F2
S11300000C942A000C9434000C9434000C943400A6
S11300100C9434000C9434000C9434000C9434008C
S11300200C9434000C9434000C9434000C9434007C
S11300300C9434000C9434000C9434000C9434006C
S11300400C9434000C9434000C9434000C9434005C
S11300500C94340011241FBECFE5D8E0DEBFCDBF21
S11300600E9436000C94C9000C9400008FEF8ABBE8
S113007014BA84B3836084BB83B3811116C01BBAE2
S11300802FE38DE093E0215080409040E1F700C0E1
S113009000008FEF8BBB2FE38DE093E02150804075
S11300A09040E1F700C00000E7CF83B3813049F509
S11300B08BBB2FE38DE093E0215080409040E1F72B
S11300C000C000001AC08BB3880F8BBB2FE38DE0F8
S11300D093E0215080409040E1F700C000008BB3D2
S11300E0803859F481E08BBB2FE38DE093E02150FD
S11300F080409040E1F700C000008BB3803819F7CE
S1130100BBCF83B3823051F580E88BBB2FE38DE006
S113011093E0215080409040E1F700C000001AC0F5
S11301208BB386958BBB2FE38DE093E02150804009
S11301309040E1F700C000008BB3813059F480E8AF
S11301408BBB2FE38DE093E0215080409040E1F79A
S113015000C000008BB3813019F78ECF83B3833096
S113016009F08ACF8AEA8BBB2FE38DE093E021501C
S113017080409040E1F700C0000085E58BBB2FE391
S11301808DE093E0215080409040E1F700C00000F2
S1090190E9CFF894FFCF53
S9030000FC
