:100000000C942A000C9434000C9434000C943400AA
:100010000C9434000C9434000C9434000C94340090
:100020000C9434000C9434000C9434000C94340080
:100030000C9434000C9434000C9434000C94340070
:100040000C9434000C9434000C9434000C94340060
:100050000C94340011241FBECFE5D8E0DEBFCDBF25
:100060000E9436000C944B000C9400008FEF87BB6D
:1000700080E090E00BC088BB2FEF30E742E02150DA
:1000800030404040E1F700C0000001968F3F9105ED
:0A00900091F38CF3EDCFF894FFCF4D
:00000001FF
