S0150000537465707065725F4D6F746F722E73726563BC
S11300000C942A000C9434000C9434000C943400A6
S11300100C9434000C9434000C9434000C9434008C
S11300200C9434000C9434000C9434000C9434007C
S11300300C9434000C9434000C9434000C9434006C
S11300400C9434000C9434000C9434000C9434005C
S11300500C94340011241FBECFE5D8E0DEBFCDBF21
S11300600E9436000C94F4000C9400008FE081BBD5
S113007080E090E059C029E022BB2FEF31EE44E04C
S1130080215030404040E1F700C0000028E022BB8E
S11300902FEF31EE44E0215030404040E1F700C002
S11300A000002CE022BB2FEF31EE44E02150304021
S11300B04040E1F700C0000024E022BB2FEF31EE06
S11300C044E0215030404040E1F700C0000026E009
S11300D022BB2FEF31EE44E0215030404040E1F7A5
S11300E000C0000022E022BB2FEF31EE44E021509B
S11300F030404040E1F700C0000023E022BB2FEF76
S113010031EE44E0215030404040E1F700C00000AF
S113011021E022BB2FEF31EE44E02150304040403B
S1130120E1F700C0000001968C3091050CF4A3CFD8
S113013089E082BB8FEF91EE24E081509040204013
S1130140E1F700C000003FEF43ED80E33150404051
S11301508040E1F700C0000080E090E02DC029E07D
S113016022BB2FEF31EE44E0215030404040E1F714
S113017000C0000023E022BB2FEF31EE44E0215009
S113018030404040E1F700C0000026E022BB2FEFE2
S113019031EE44E0215030404040E1F700C000001F
S11301A02CE022BB2FEF31EE44E0215030404040A0
S11301B0E1F700C0000001968C30910584F289E0DB
S11301C082BB8FEF91EE24E0815090402040E1F714
S11301D000C000003FEF43ED80E3315040408040D9
S10F01E0E1F700C0000044CFF894FFCF0A
S9030000FC
