:100000000C942A000C943F000C943F000C943F0089
:100010000C943F000C943F000C943F000C943F0064
:100020000C943F000C943F000C943F000C943F0054
:100030000C943F000C943F000C943F000C943F0044
:100040000C943F000C943F000C943F000C943F0034
:100050000C943F0011241FBECFE5D8E0DEBFCDBF1A
:1000600010E0A0E6B0E0EAECF3E002C005900D92EB
:10007000A438B107D9F70E9451010C94E3010C9404
:10008000000092B39F7D92BB92B39F7B92BB982F4F
:10009000907F98BB92B3906892BBE3ECF9E0319704
:1000A000F1F700C0000092B39F7792BB8295807FEA
:1000B00088BB82B3806882BB89EF90E00197F1F73B
:1000C00000C0000082B38F7782BB089592B3906224
:1000D00092BB92B39F7B92BB982F907F98BB92B3B9
:1000E000906892BBE3ECF9E03197F1F700C00000B3
:1000F00092B39F7792BB8295807F88BB82B38068E2
:1001000082BB89EF90E00197F1F700C0000082B355
:100110008F7782BB08958FEF8ABB81BB82B38F77C5
:1001200082BB83E30E94410082E30E94410088E297
:100130000E9441008EE00E94410081E00E94410047
:1001400083EF91E00197F1F700C0000008958EEF72
:1001500085BB9C9908C081E19AE70197F1F700C03F
:10016000000087E308959D9908C081E19AE701970F
:10017000F1F700C0000088E308959E9908C081E16E
:100180009AE70197F1F700C0000089E308959F996D
:1001900008C081E19AE70197F1F700C000008FE203
:1001A00008958DEF85BB9C9908C081E19AE701977E
:1001B000F1F700C0000084E308959D9908C081E133
:1001C0009AE70197F1F700C0000085E308959E9932
:1001D00008C081E19AE70197F1F700C0000086E3CB
:1001E00008959F9908C081E19AE70197F1F700C04F
:1001F00000008AE208958BEF85BB9C9908C081E1DD
:100200009AE70197F1F700C0000081E308959D99F6
:1002100008C081E19AE70197F1F700C0000082E38E
:1002200008959E9908C081E19AE70197F1F700C00F
:10023000000083E308959F9908C085EE9AEA01972C
:10024000F1F700C000008DE2089587EF85BB9C990F
:1002500008C081E19AE70197F1F700C0000083E44C
:1002600008959D9908C081E19AE70197F1F700C0D0
:10027000000080E308959E9908C081E19AE7019704
:10028000F1F700C000008DE308959F9908C081E157
:100290009AE70197F1F700C000008BE2089580E033
:1002A0000895CF92DF92FF920F931F93CF93DF9326
:1002B000CDB7DEB767970FB6F894DEBF0FBECDBFE0
:1002C0008FE084BB89EF90E00197F1F700C0000058
:1002D00010EF15BB0E948B0015BB89E698E10197D2
:1002E000F1F700C0000083B3803F09F45CC081E3F4
:1002F00092E39D8B8C8B83E398E79F8B8E8B00E042
:1003000010E0C12CD12C13C00E94A700F82E0E942F
:100310006600E4E1F0E0EC0FFD1FE00FF11F8081CB
:10032000F81203C09FEFC91AD90A0F5F1F4F04309C
:10033000110554F384E0C816D104D9F481E1E0E654
:10034000F0E0DE01119601900D928A95E1F700E050
:1003500010E00BC0E1E0F0E0EC0FFD1FE00FF11F3B
:1003600080810E9466000F5F1F4F0131110590F3DD
:100370001AC083E1E1E7F0E0DE01119601900D92F1
:100380008A95E1F700E010E00BC0E1E0F0E0EC0F4F
:10039000FD1FE00FF11F80810E9466000F5F1F4F5D
:1003A0000331110590F380E090E067960FB6F89462
:1003B000DEBF0FBECDBFDF91CF911F910F91FF9098
:0A03C000DF90CF900895F894FFCF6E
:1003CA00436F72726563742050617373776F7264DE
:1003DA0000496E636F72726563742050617373773C
:0403EA006F726400CA
:00000001FF
