S01B00004578706572696D656E745F325F5461736B5F312E73726563D5
S11300000C942A000C943F000C943F000C943F0085
S11300100C943F000C943F000C943F000C943F0060
S11300200C943F000C943F000C943F000C943F0050
S11300300C943F000C943F000C943F000C943F0040
S11300400C943F000C943F000C943F000C943F0030
S11300500C943F0011241FBECFE5D8E0DEBFCDBF16
S113006010E0A0E6B0E0E4E4F3E002C005900D92F5
S1130070AE37B107D9F70E9467010C94A0010C9424
S113008000008FEF85BB2FE986E891E02150804086
S11300909040E1F700C0000015BA2FE986E891E02E
S11300A0215080409040E1F700C0000008958AEAA2
S11300B085BB2FE986E891E0215080409040E1F72C
S11300C000C0000085E585BB2FE986E891E021505A
S11300D080409040E1F700C00000089580EF85BBA8
S11300E02FE986E891E0215080409040E1F700C07C
S11300F000008FE085BB2FE986E891E02150804025
S11301009040E1F700C00000089515BA2FE986E891
S113011091E0215080409040E1F700C0000081E070
S113012085BB10C02FE986E891E0215080409040C3
S1130130E1F700C0000085B3880F85BB85B38F3F0E
S113014009F485B385B38111EDCF0895CF93DF937F
S1130150CDB7DEB760970FB6F894DEBF0FBECDBF44
S11301608FEF85BB2FE936E841E021503040404015
S1130170E1F700C0000080E1E0E6F0E0DE01119666
S113018001900D928A95E1F780E090E025C0FC0192
S1130190EE0FFF1F21E030E02C0F3D1FE20FF31F95
S11301A0208125BB3FE946E821E031504040204012
S11301B0E1F700C000008930910569F48FEF85BB39
S11301C03FE946E881E0315040408040E1F700C01B
S11301D000008FEF9FEF01968A309105C4F260967C
S11301E00FB6F894DEBF0FBECDBFDF91CF91089557
S11301F015BA2FE986E891E0215080409040E1F75C
S113020000C0000080E885BB10C02FE986E891E0BB
S1130210215080409040E1F700C0000085B38695EE
S113022085BB85B3813009F485B385B38111EDCFE6
S11302300895CF93DF93CDB7DEB72E970FB6F8941A
S1130240DEBF0FBECDBF15BA2FE936E841E021501D
S113025030404040E1F700C000008EE0E0E7F0E00D
S1130260DE01119601900D928A95E1F780E090E00D
S11302701AC0FC01EE0FFF1F21E030E02C0F3D1FE0
S1130280E20FF31F208125BB3FE946E821E031500E
S113029040402040E1F700C00000019688309105FD
S11302A011F480E090E0883091051CF32E960FB68F
S11302B0F894DEBF0FBECDBFDF91CF9108958FE7D5
S11302C085BB08958FEF85BB089515BA08958FEF08
S11302D084BB17BA87B3806F87BB86B3811102C012
S11302E00E94410086B3813011F40E94570086B306
S11302F0823011F40E946E0086B3833011F40E94A0
S1130300850086B3843011F40E94A60086B385303C
S113031011F40E94F80086B3863011F40E9419018A
S113032086B3873011F40E945F0186B3883011F4DC
S11303300E94620186B3893081F60E946501CDCFA7
S1070340F894FFCF5B
S1130344FE00FD00FB00F700EF00DF00BF007F00AC
S11103548100420024001800240042008100B1
S9030000FC
