:100000000C942A000C943F000C943F000C943F0089
:100010000C943F000C943F000C943F000C943F0064
:100020000C943F000C943F000C943F000C943F0054
:100030000C943F000C943F000C943F000C943F0044
:100040000C943F000C943F000C943F000C943F0034
:100050000C943F0011241FBECFE5D8E0DEBFCDBF1A
:1000600010E0A0E6B0E0EAEBF1E002C005900D92EE
:10007000A237B107D9F70E948F000C94DB000C94D3
:10008000000088BB85B38E7F85BB85B38D7F85BB24
:1000900085B3846085BB89EF90E00197F1F700C0DC
:1000A000000085B38B7F85BB089588BB85B38160D5
:1000B00085BB85B38D7F85BB85B3846085BB89EFA8
:1000C00090E00197F1F700C0000085B38B7F85BBFE
:1000D000089583ED90E30197F1F700C0000088E3F5
:1000E0000E9441008CE00E94410086E00E94410095
:1000F00081E00E94410083EF91E00197F1F700C099
:10010000000080E80E9441000895813011F080E8ED
:1001100001C080EC860F81500E9441000895CF936A
:10012000DF93CDB7DEB72F970FB6F894DEBF0FBEC3
:10013000CDBF8FEF87BB84BB0E94690085E0E0E6FE
:10014000F0E0DE01119601900D928A95E1F78AE0C8
:10015000E6E6F0E0DE01169601900D928A95E1F751
:1001600065E080E00E94850000E010E00BC0E1E067
:10017000F0E0EC0FFD1FE00FF11F80810E945500A1
:100180000F5F1F4F0530110594F363E081E00E947B
:10019000850000E010E00BC0E6E0F0E0EC0FFD1F92
:1001A000E00FF11F80810E9455000F5F1F4F0A3042
:0A01B000110594F3FFCFF894FFCF80
:1001BA00415259414E004C414E4748414E4F4A41E7
:0201CA00000033
:00000001FF
