:100000000C942A000C943F000C943F000C943F0089
:100010000C943F000C943F000C943F000C943F0064
:100020000C943F000C943F000C943F000C943F0054
:100030000C943F000C943F000C943F000C943F0044
:100040000C943F000C943F000C943F000C943F0034
:100050000C943F0011241FBECFE5D8E0DEBFCDBF1A
:1000600010E0A0E6B0E0E0E0F1E002C005900D9203
:10007000A038B107D9F70E9441000C947E000C947F
:100080000000CF93DF93CDB7DEB7A0970FB6F894FB
:10009000DEBF0FBECDBF80E2E0E6F0E0DE011196EC
:1000A00001900D928A95E1F78FEF8ABB8FE090E087
:1000B00018C0FC01EE0FFF1F21E030E02C0F3D1FA8
:1000C000E20FF31F20812BBB3FE34DE023E03150D3
:1000D00040402040E1F700C00000019710F48FE09D
:1000E00090E0992334F780E090E0A0960FB6F89462
:1000F000DEBF0FBECDBFDF91CF910895F894FFCF43
:10010000C000F900A400B000990092008200F8003D
:100110008000980088008300C600A10086008E0041
:00000001FF
