S01200005175657374696F6E2D312E737265635C
S11300000C942A000C9434000C9434000C943400A6
S11300100C9434000C9434000C9434000C9434008C
S11300200C9434000C9434000C9434000C9434007C
S11300300C9434000C9434000C9434000C9434006C
S11300400C9434000C9434000C9434000C9434005C
S11300500C94340011241FBECFE5D8E0DEBFCDBF21
S11300600E9436000C943E000C9400008FEF87BB76
S113007014BA85BB83B383B388BBFCCFF894FFCF9A
S9030000FC
