S012000050726F6772616D6D5F332E737265633B
S11300000C942A000C9434000C9434000C943400A6
S11300100C9434000C9434000C9434000C9434008C
S11300200C9434000C9434000C9434000C9434007C
S11300300C9434000C9434000C9434000C9434006C
S11300400C9434000C9434000C9434000C9434005C
S11300500C94340011241FBECFE5D8E0DEBFCDBF21
S11300600E9436000C9445000C9400008FEF87BB6F
S113007014BA81BB83B3883C20F483B388BB12BA1F
S1110080F9CF83B382BB18BAF5CFF894FFCF43
S9030000FC
