S010000044435F4D6F746F722E737265631D
S11300000C942A000C9434000C9434000C943400A6
S11300100C9434000C9434000C9434000C9434008C
S11300200C9434000C9434000C9434000C9434007C
S11300300C9434000C9434000C9434000C9434006C
S11300400C9434000C9434000C9434000C9434005C
S11300500C94340011241FBECFE5D8E0DEBFCDBF21
S11300600E9436000C9463000C9400008FEF87BB51
S113007085E088BB2FEF8BE792E9215080409040C8
S1130080E1F700C0000018BA2FEF83ED90E3215090
S113009080409040E1F700C000008AE088BB2FEF69
S11300A08BE792E9215080409040E1F700C00000C6
S11300B018BA2FEF83ED90E3215080409040E1F790
S10D00C000C00000D5CFF894FFCF74
S9030000FC
