S00C000044454D4F2E73726563F3
S11300000C942A000C943F000C943F000C943F0085
S11300100C943F000C943F000C943F000C943F0060
S11300200C943F000C943F000C943F000C943F0050
S11300300C943F000C943F000C943F000C943F0040
S11300400C943F000C943F000C943F000C943F0030
S11300500C943F0011241FBECFE5D8E0DEBFCDBF16
S113006010E0A0E6B0E0E0EBF1E002C005900D92F4
S1130070A038B107D9F70E9441000C94D6000C9423
S11300800000CF93DF93CDB7DEB7A0970FB6F894F7
S1130090DEBF0FBECDBF80E2E0E6F0E0DE011196E8
S11300A001900D928A95E1F71ABA83E08BBB8FEF2A
S11300B081BB80E090E01AC08A30910511F480E0A1
S11300C090E0FC01EE0FFF1F21E030E02C0F3D1FFC
S11300D0E20FF31F208122BB01963FEF40E722E0AD
S11300E0315040402040E1F700C0000029B32330E4
S11300F0E1F4E2CF8F3F3FEF930711F489E090E002
S1130100FC01EE0FFF1F21E030E02C0F3D1FE20F3A
S1130110F31F208122BB01973FEF40E722E03150DB
S113012040402040E1F700C0000029B3223011F321
S11301301AC08031910511F480E090E0FC01EE0FCB
S1130140FF1F21E030E02C0F3D1FE20FF31F208141
S113015022BB01963FEF40E722E03150404020406F
S1130160E1F700C0000029B3213019F31BC08F3F11
S11301703FEF930711F48FE090E0FC01EE0FFF1FB7
S113018021E030E02C0F3D1FE20FF31F208122BB42
S113019001973FEF40E722E0315040402040E1F733
S11301A000C0000029B3222311F3A0CFF894FFCF9D
S11301B0C000F900A400B000990092008200F80089
S11301C08000980088008300C600A10086008E008D
S9030000FC
