S012000050726F6772616D6D5F352E7372656339
S11300000C942A000C9434000C9434000C943400A6
S11300100C9434000C9434000C9434000C9434008C
S11300200C9434000C9434000C9434000C9434007C
S11300300C9434000C9434000C9434000C9434006C
S11300400C9434000C9434000C9434000C9434005C
S11300500C94340011241FBECFE5D8E0DEBFCDBF21
S11300600E9436000C9441000C94000014BA8FEFE7
S113007087BB83B3803219F48FEF88BBFACF18BAE9
S1090080F8CFF894FFCF55
S9030000FC
