:100000000C942A000C943F000C943F000C943F0089
:100010000C943F000C943F000C943F000C943F0064
:100020000C943F000C943F000C943F000C943F0054
:100030000C943F000C943F000C943F000C943F0044
:100040000C943F000C943F000C943F000C943F0034
:100050000C943F0011241FBECFE5D8E0DEBFCDBF1A
:1000600010E0A0E6B0E0E6E0F1E002C005900D92FD
:10007000A038B107D9F70E9441000C9481000C947C
:100080000000CF93DF93CDB7DEB7A0970FB6F894FB
:10009000DEBF0FBECDBF80E2E0E6F0E0DE011196EC
:1000A00001900D928A95E1F78FEF8ABB80E090E096
:1000B0001AC0FC01EE0FFF1F21E030E02C0F3D1FA6
:1000C000E20FF31F20812BBB3FE34DE023E03150D3
:1000D00040402040E1F700C00000019680319105CA
:1000E00011F480E090E0803191051CF380E090E015
:1000F000A0960FB6F894DEBF0FBECDBFDF91CF91B3
:060100000895F894FFCF02
:10010600C000F900A400B000990092008200F80037
:100116008000980088008300C600A10086008E003B
:00000001FF
