S01400004578706572696D656E745F322E737265635E
S11300000C942A000C943F000C943F000C943F0085
S11300100C943F000C943F000C943F000C943F0060
S11300200C943F000C943F000C943F000C943F0050
S11300300C943F000C943F000C943F000C943F0040
S11300400C943F000C943F000C943F000C943F0030
S11300500C943F0011241FBECFE5D8E0DEBFCDBF16
S113006010E0A0E6B0E0ECEAF1E002C005900D92E9
S1130070A038B107D9F70E9441000C94D4000C9425
S11300800000CF93DF93CDB7DEB7A0970FB6F894F7
S1130090DEBF0FBECDBF80E2E0E6F0E0DE011196E8
S11300A001900D928A95E1F71ABA8FEF84BB80E034
S11300B090E01AC08A30910511F480E090E0FC01D0
S11300C0EE0FFF1F21E030E02C0F3D1FE20FF31F66
S11300D0208125BB01963FEF40E722E031504040AC
S11300E02040E1F700C0000029B3222319F31BC00C
S11300F08F3F3FEF930711F489E090E0FC01EE0F8E
S1130100FF1F21E030E02C0F3D1FE20FF31F208181
S113011025BB01973FEF40E722E0315040402040AB
S1130120E1F700C0000029B3213011F31AC0803177
S1130130910511F480E090E0FC01EE0FFF1F21E037
S113014030E02C0F3D1FE20FF31F208125BB0196E9
S11301503FEF40E722E0315040402040E1F700C04B
S1130160000029B3223019F31BC08F3F3FEF9307E0
S113017011F48FE090E0FC01EE0FFF1F21E030E06E
S11301802C0F3D1FE20FF31F208125BB01973FEF8A
S113019040E722E0315040402040E1F700C0000039
S10F01A029B3233011F3A0CFF894FFCF53
S11301AC3F0006005B004F0066006D007D000700F9
S11301BC7F00670077007C0039005E0079007100D5
S9030000FC
