:100000000C942A000C9434000C9434000C943400AA
:100010000C9434000C9434000C9434000C94340090
:100020000C9434000C9434000C9434000C94340080
:100030000C9434000C9434000C9434000C94340070
:100040000C9434000C9434000C9434000C94340060
:100050000C94340011241FBECFE5D8E0DEBFCDBF25
:100060000E9436000C94C7000C9400008FEF87BBF1
:1000700080E090E016C02FEF28BB2FE33DE043E087
:10008000215030404040E1F700C0000018BA2FE393
:100090003DE043E0215030404040E1F700C0000027
:1000A0000196853091053CF380E090E017C020EF89
:1000B00028BB2FE33DE043E0215030404040E1F7D2
:1000C00000C000002FE028BB2FE33DE043E02150BB
:1000D00030404040E1F700C00000019685309105B6
:1000E00034F380E090E017C02CEC28BB2FE33DE018
:1000F00043E0215030404040E1F700C0000023E3DE
:1001000028BB2FE33DE043E0215030404040E1F781
:1001100000C0000001968530910534F380E090E046
:1001200017C02AEA28BB2FE33DE043E021503040CE
:100130004040E1F700C0000025E528BB2FE33DE08B
:1001400043E0215030404040E1F700C000000196FC
:100150008530910534F380E888BB80E090E013C0DF
:1001600021E030E0082E02C0220F331F0A94E2F78C
:1001700028BB2FE33DE043E0215030404040E1F711
:1001800000C0000001968730910554F371CFF894B8
:02019000FFCF9F
:00000001FF
